{
  "contractName": "Career",
  "abi": [
    {
      "constant": false,
      "inputs": [
        {
          "name": "em_code",
          "type": "string"
        },
        {
          "name": "_m_code",
          "type": "string"
        },
        {
          "name": "_join_date",
          "type": "string"
        },
        {
          "name": "_end_date",
          "type": "string"
        },
        {
          "name": "_work_place_name",
          "type": "string"
        }
      ],
      "name": "addCareer",
      "outputs": [],
      "payable": false,
      "stateMutability": "nonpayable",
      "type": "function"
    },
    {
      "constant": true,
      "inputs": [
        {
          "name": "em_code",
          "type": "string"
        }
      ],
      "name": "getCareer",
      "outputs": [
        {
          "name": "",
          "type": "string"
        },
        {
          "name": "",
          "type": "string"
        },
        {
          "name": "",
          "type": "string"
        },
        {
          "name": "",
          "type": "string"
        }
      ],
      "payable": false,
      "stateMutability": "view",
      "type": "function"
    }
  ],
  "bytecode": "0x608060405234801561001057600080fd5b5061093c806100206000396000f30060806040526004361061004c576000357c0100000000000000000000000000000000000000000000000000000000900463ffffffff1680630725aac214610051578063777c1d7614610277575b600080fd5b34801561005d57600080fd5b506100b8600480360381019080803590602001908201803590602001908080601f01602080910402602001604051908101604052809392919081815260200183838082843782019150505050505091929192905050506103f8565b6040518080602001806020018060200180602001858103855289818151815260200191508051906020019080838360005b838110156101045780820151818401526020810190506100e9565b50505050905090810190601f1680156101315780820380516001836020036101000a031916815260200191505b50858103845288818151815260200191508051906020019080838360005b8381101561016a57808201518184015260208101905061014f565b50505050905090810190601f1680156101975780820380516001836020036101000a031916815260200191505b50858103835287818151815260200191508051906020019080838360005b838110156101d05780820151818401526020810190506101b5565b50505050905090810190601f1680156101fd5780820380516001836020036101000a031916815260200191505b50858103825286818151815260200191508051906020019080838360005b8381101561023657808201518184015260208101905061021b565b50505050905090810190601f1680156102635780820380516001836020036101000a031916815260200191505b509850505050505050505060405180910390f35b34801561028357600080fd5b506103f6600480360381019080803590602001908201803590602001908080601f0160208091040260200160405190810160405280939291908181526020018383808284378201915050505050509192919290803590602001908201803590602001908080601f0160208091040260200160405190810160405280939291908181526020018383808284378201915050505050509192919290803590602001908201803590602001908080601f0160208091040260200160405190810160405280939291908181526020018383808284378201915050505050509192919290803590602001908201803590602001908080601f0160208091040260200160405190810160405280939291908181526020018383808284378201915050505050509192919290803590602001908201803590602001908080601f0160208091040260200160405190810160405280939291908181526020018383808284378201915050505050509192919290505050610737565b005b606080606080610406610842565b6000866040518082805190602001908083835b60208310151561043e5780518252602082019150602081019050602083039250610419565b6001836020036101000a038019825116818451168082178552505050505050905001915050908152602001604051809103902060806040519081016040529081600082018054600181600116156101000203166002900480601f0160208091040260200160405190810160405280929190818152602001828054600181600116156101000203166002900480156105165780601f106104eb57610100808354040283529160200191610516565b820191906000526020600020905b8154815290600101906020018083116104f957829003601f168201915b50505050508152602001600182018054600181600116156101000203166002900480601f0160208091040260200160405190810160405280929190818152602001828054600181600116156101000203166002900480156105b85780601f1061058d576101008083540402835291602001916105b8565b820191906000526020600020905b81548152906001019060200180831161059b57829003601f168201915b50505050508152602001600282018054600181600116156101000203166002900480601f01602080910402602001604051908101604052809291908181526020018280546001816001161561010002031660029004801561065a5780601f1061062f5761010080835404028352916020019161065a565b820191906000526020600020905b81548152906001019060200180831161063d57829003601f168201915b50505050508152602001600382018054600181600116156101000203166002900480601f0160208091040260200160405190810160405280929190818152602001828054600181600116156101000203166002900480156106fc5780601f106106d1576101008083540402835291602001916106fc565b820191906000526020600020905b8154815290600101906020018083116106df57829003601f168201915b505050505081525050905080600001518160200151826040015183606001518393508292508191508090509450945094509450509193509193565b608060405190810160405280858152602001848152602001838152602001828152506000866040518082805190602001908083835b602083101515610791578051825260208201915060208101905060208303925061076c565b6001836020036101000a038019825116818451168082178552505050505050905001915050908152602001604051809103902060008201518160000190805190602001906107e092919061086b565b5060208201518160010190805190602001906107fd92919061086b565b50604082015181600201908051906020019061081a92919061086b565b50606082015181600301908051906020019061083792919061086b565b509050505050505050565b608060405190810160405280606081526020016060815260200160608152602001606081525090565b828054600181600116156101000203166002900490600052602060002090601f016020900481019282601f106108ac57805160ff19168380011785556108da565b828001600101855582156108da579182015b828111156108d95782518255916020019190600101906108be565b5b5090506108e791906108eb565b5090565b61090d91905b808211156109095760008160009055506001016108f1565b5090565b905600a165627a7a723058201b83c461e93b3710f05b4882ef2519f74ec4d71a118166c97e1c1092ec0df3400029",
  "source": "pragma solidity  ^0.4.24;\r\n\r\ncontract Career {\r\n    struct Careerinfo {\r\n        string m_code;\r\n        string join_date;\r\n        string end_date;\r\n        string work_place_name;\r\n    }\r\n\r\n    mapping(string => Careerinfo) careerinfo;\r\n\r\n\r\n    function addCareer(string em_code,\r\n                        string _m_code,\r\n                        string _join_date,\r\n                        string _end_date,\r\n                        string _work_place_name) public {\r\n                \t         \r\n        careerinfo[em_code] = Careerinfo(_m_code,_join_date,_end_date,_work_place_name);\r\n    }\r\n\r\n    function getCareer(string em_code) public view returns (string,string,string,string) {\r\n        Careerinfo memory cc = careerinfo[em_code];\r\n        return (\r\n                cc.m_code,\r\n                cc.join_date,\r\n                cc.end_date,\r\n                cc.work_place_name\r\n        );\r\n    }\r\n\r\n}",
  "sourcePath": "J:\\klaytn\\problock\\contracts\\Career.sol",
  "compiler": {
    "name": "solc",
    "version": "0.4.25+commit.59dbf8f1.Emscripten.clang"
  },
  "schemaVersion": "2.0.2",
  "updatedAt": "2019-06-13T02:12:50.147Z"
}