{
  "contractName": "CareerHash",
  "abi": [
    {
      "constant": false,
      "inputs": [
        {
          "name": "em_code",
          "type": "string"
        },
        {
          "name": "hashCareinfo",
          "type": "string"
        }
      ],
      "name": "addCareehash",
      "outputs": [],
      "payable": false,
      "stateMutability": "nonpayable",
      "type": "function"
    },
    {
      "constant": true,
      "inputs": [
        {
          "name": "em_code",
          "type": "string"
        }
      ],
      "name": "getCareeHash",
      "outputs": [
        {
          "name": "",
          "type": "string"
        }
      ],
      "payable": false,
      "stateMutability": "view",
      "type": "function"
    }
  ],
  "bytecode": "0x608060405234801561001057600080fd5b50610444806100206000396000f30060806040526004361061004c576000357c0100000000000000000000000000000000000000000000000000000000900463ffffffff16806346eeb1701461005157806382a181ed14610100575b600080fd5b34801561005d57600080fd5b506100fe600480360381019080803590602001908201803590602001908080601f0160208091040260200160405190810160405280939291908181526020018383808284378201915050505050509192919290803590602001908201803590602001908080601f01602080910402602001604051908101604052809392919081815260200183838082843782019150505050505091929192905050506101e2565b005b34801561010c57600080fd5b50610167600480360381019080803590602001908201803590602001908080601f0160208091040260200160405190810160405280939291908181526020018383808284378201915050505050509192919290505050610266565b6040518080602001828103825283818151815260200191508051906020019080838360005b838110156101a757808201518184015260208101905061018c565b50505050905090810190601f1680156101d45780820380516001836020036101000a031916815260200191505b509250505060405180910390f35b806000836040518082805190602001908083835b60208310151561021b57805182526020820191506020810190506020830392506101f6565b6001836020036101000a03801982511681845116808217855250505050505090500191505090815260200160405180910390209080519060200190610261929190610373565b505050565b60606000826040518082805190602001908083835b6020831015156102a0578051825260208201915060208101905060208303925061027b565b6001836020036101000a03801982511681845116808217855250505050505090500191505090815260200160405180910390208054600181600116156101000203166002900480601f0160208091040260200160405190810160405280929190818152602001828054600181600116156101000203166002900480156103675780601f1061033c57610100808354040283529160200191610367565b820191906000526020600020905b81548152906001019060200180831161034a57829003601f168201915b50505050509050919050565b828054600181600116156101000203166002900490600052602060002090601f016020900481019282601f106103b457805160ff19168380011785556103e2565b828001600101855582156103e2579182015b828111156103e15782518255916020019190600101906103c6565b5b5090506103ef91906103f3565b5090565b61041591905b808211156104115760008160009055506001016103f9565b5090565b905600a165627a7a723058208725cc6cad88741c509c4735c5529608f59a7dc28de8e5780fd8f819c6aa4b090029",
  "source": "pragma solidity  ^0.4.24;\r\n\r\ncontract CareerHash {\r\n\r\n    mapping(string => string) career;\r\n\r\n\r\n    function addCareehash(string em_code, string hashCareinfo) public {\r\n        career[em_code] = hashCareinfo;\r\n    }\r\n\r\n    function getCareeHash(string em_code) public view returns (string) {\r\n        return career[em_code];\r\n    }\r\n}",
  "sourcePath": "J:\\klaytn\\problock_v2\\contracts\\CareerHash.sol",
  "compiler": {
    "name": "solc",
    "version": "0.4.25+commit.59dbf8f1.Emscripten.clang"
  },
  "schemaVersion": "2.0.2",
  "updatedAt": "2019-06-21T06:20:25.053Z"
}