{
  "contractName": "CeoAndEmpl",
  "abi": [
    {
      "constant": false,
      "inputs": [
        {
          "name": "c_code",
          "type": "uint256"
        },
        {
          "name": "_c_id",
          "type": "string"
        },
        {
          "name": "_p_id",
          "type": "string"
        },
        {
          "name": "_work_place_name",
          "type": "string"
        },
        {
          "name": "_b_name",
          "type": "string"
        },
        {
          "name": "_p_name",
          "type": "string"
        },
        {
          "name": "_p_phone",
          "type": "string"
        },
        {
          "name": "_p_address",
          "type": "string"
        }
      ],
      "name": "addConsId",
      "outputs": [],
      "payable": false,
      "stateMutability": "nonpayable",
      "type": "function"
    },
    {
      "constant": true,
      "inputs": [
        {
          "name": "c_code",
          "type": "uint256"
        }
      ],
      "name": "getConsId",
      "outputs": [
        {
          "name": "",
          "type": "string"
        },
        {
          "name": "",
          "type": "string"
        },
        {
          "name": "",
          "type": "string"
        },
        {
          "name": "",
          "type": "string"
        },
        {
          "name": "",
          "type": "string"
        },
        {
          "name": "",
          "type": "string"
        },
        {
          "name": "",
          "type": "string"
        }
      ],
      "payable": false,
      "stateMutability": "view",
      "type": "function"
    },
    {
      "constant": false,
      "inputs": [
        {
          "name": "c_code",
          "type": "uint256"
        },
        {
          "name": "_start_period",
          "type": "string"
        },
        {
          "name": "_end_period",
          "type": "string"
        },
        {
          "name": "_c_date",
          "type": "string"
        },
        {
          "name": "_start_work_time",
          "type": "string"
        },
        {
          "name": "_end_work_time",
          "type": "string"
        },
        {
          "name": "_payday",
          "type": "string"
        },
        {
          "name": "_hour_wage",
          "type": "string"
        }
      ],
      "name": "addConsTime",
      "outputs": [],
      "payable": false,
      "stateMutability": "nonpayable",
      "type": "function"
    },
    {
      "constant": true,
      "inputs": [
        {
          "name": "c_code",
          "type": "uint256"
        }
      ],
      "name": "getConsTime",
      "outputs": [
        {
          "name": "",
          "type": "string"
        },
        {
          "name": "",
          "type": "string"
        },
        {
          "name": "",
          "type": "string"
        },
        {
          "name": "",
          "type": "string"
        },
        {
          "name": "",
          "type": "string"
        },
        {
          "name": "",
          "type": "string"
        },
        {
          "name": "",
          "type": "string"
        }
      ],
      "payable": false,
      "stateMutability": "view",
      "type": "function"
    },
    {
      "constant": false,
      "inputs": [
        {
          "name": "c_code",
          "type": "uint256"
        },
        {
          "name": "_dedicated_work",
          "type": "string"
        },
        {
          "name": "_work_place",
          "type": "string"
        },
        {
          "name": "_work_detail",
          "type": "string"
        },
        {
          "name": "_additional_wage",
          "type": "string"
        },
        {
          "name": "_b_number",
          "type": "string"
        },
        {
          "name": "_c_address",
          "type": "string"
        },
        {
          "name": "_work_place_phone",
          "type": "string"
        }
      ],
      "name": "addConsCont",
      "outputs": [],
      "payable": false,
      "stateMutability": "nonpayable",
      "type": "function"
    },
    {
      "constant": true,
      "inputs": [
        {
          "name": "c_code",
          "type": "uint256"
        }
      ],
      "name": "getConsCont",
      "outputs": [
        {
          "name": "",
          "type": "string"
        },
        {
          "name": "",
          "type": "string"
        },
        {
          "name": "",
          "type": "string"
        },
        {
          "name": "",
          "type": "string"
        },
        {
          "name": "",
          "type": "string"
        },
        {
          "name": "",
          "type": "string"
        },
        {
          "name": "",
          "type": "string"
        }
      ],
      "payable": false,
      "stateMutability": "view",
      "type": "function"
    }
  ],
  "bytecode": "0x608060405234801561001057600080fd5b5061240e806100206000396000f300608060405260043610610078576000357c0100000000000000000000000000000000000000000000000000000000900463ffffffff168063853ad13f1461007d57806385b4f486146102945780639add270f146105c25780639cd6aa18146108f0578063b5904ec514610b07578063ddd22c8d14610d1e575b600080fd5b34801561008957600080fd5b5061029260048036038101908080359060200190929190803590602001908201803590602001908080601f0160208091040260200160405190810160405280939291908181526020018383808284378201915050505050509192919290803590602001908201803590602001908080601f0160208091040260200160405190810160405280939291908181526020018383808284378201915050505050509192919290803590602001908201803590602001908080601f0160208091040260200160405190810160405280939291908181526020018383808284378201915050505050509192919290803590602001908201803590602001908080601f0160208091040260200160405190810160405280939291908181526020018383808284378201915050505050509192919290803590602001908201803590602001908080601f0160208091040260200160405190810160405280939291908181526020018383808284378201915050505050509192919290803590602001908201803590602001908080601f0160208091040260200160405190810160405280939291908181526020018383808284378201915050505050509192919290803590602001908201803590602001908080601f016020809104026020016040519081016040528093929190818152602001838380828437820191505050505050919291929050505061104c565b005b3480156102a057600080fd5b506102bf6004803603810190808035906020019092919050505061116a565b604051808060200180602001806020018060200180602001806020018060200188810388528f818151815260200191508051906020019080838360005b838110156103175780820151818401526020810190506102fc565b50505050905090810190601f1680156103445780820380516001836020036101000a031916815260200191505b5088810387528e818151815260200191508051906020019080838360005b8381101561037d578082015181840152602081019050610362565b50505050905090810190601f1680156103aa5780820380516001836020036101000a031916815260200191505b5088810386528d818151815260200191508051906020019080838360005b838110156103e35780820151818401526020810190506103c8565b50505050905090810190601f1680156104105780820380516001836020036101000a031916815260200191505b5088810385528c818151815260200191508051906020019080838360005b8381101561044957808201518184015260208101905061042e565b50505050905090810190601f1680156104765780820380516001836020036101000a031916815260200191505b5088810384528b818151815260200191508051906020019080838360005b838110156104af578082015181840152602081019050610494565b50505050905090810190601f1680156104dc5780820380516001836020036101000a031916815260200191505b5088810383528a818151815260200191508051906020019080838360005b838110156105155780820151818401526020810190506104fa565b50505050905090810190601f1680156105425780820380516001836020036101000a031916815260200191505b50888103825289818151815260200191508051906020019080838360005b8381101561057b578082015181840152602081019050610560565b50505050905090810190601f1680156105a85780820380516001836020036101000a031916815260200191505b509e50505050505050505050505050505060405180910390f35b3480156105ce57600080fd5b506105ed6004803603810190808035906020019092919050505061165d565b604051808060200180602001806020018060200180602001806020018060200188810388528f818151815260200191508051906020019080838360005b8381101561064557808201518184015260208101905061062a565b50505050905090810190601f1680156106725780820380516001836020036101000a031916815260200191505b5088810387528e818151815260200191508051906020019080838360005b838110156106ab578082015181840152602081019050610690565b50505050905090810190601f1680156106d85780820380516001836020036101000a031916815260200191505b5088810386528d818151815260200191508051906020019080838360005b838110156107115780820151818401526020810190506106f6565b50505050905090810190601f16801561073e5780820380516001836020036101000a031916815260200191505b5088810385528c818151815260200191508051906020019080838360005b8381101561077757808201518184015260208101905061075c565b50505050905090810190601f1680156107a45780820380516001836020036101000a031916815260200191505b5088810384528b818151815260200191508051906020019080838360005b838110156107dd5780820151818401526020810190506107c2565b50505050905090810190601f16801561080a5780820380516001836020036101000a031916815260200191505b5088810383528a818151815260200191508051906020019080838360005b83811015610843578082015181840152602081019050610828565b50505050905090810190601f1680156108705780820380516001836020036101000a031916815260200191505b50888103825289818151815260200191508051906020019080838360005b838110156108a957808201518184015260208101905061088e565b50505050905090810190601f1680156108d65780820380516001836020036101000a031916815260200191505b509e50505050505050505050505050505060405180910390f35b3480156108fc57600080fd5b50610b0560048036038101908080359060200190929190803590602001908201803590602001908080601f0160208091040260200160405190810160405280939291908181526020018383808284378201915050505050509192919290803590602001908201803590602001908080601f0160208091040260200160405190810160405280939291908181526020018383808284378201915050505050509192919290803590602001908201803590602001908080601f0160208091040260200160405190810160405280939291908181526020018383808284378201915050505050509192919290803590602001908201803590602001908080601f0160208091040260200160405190810160405280939291908181526020018383808284378201915050505050509192919290803590602001908201803590602001908080601f0160208091040260200160405190810160405280939291908181526020018383808284378201915050505050509192919290803590602001908201803590602001908080601f0160208091040260200160405190810160405280939291908181526020018383808284378201915050505050509192919290803590602001908201803590602001908080601f0160208091040260200160405190810160405280939291908181526020018383808284378201915050505050509192919290505050611b51565b005b348015610b1357600080fd5b50610d1c60048036038101908080359060200190929190803590602001908201803590602001908080601f0160208091040260200160405190810160405280939291908181526020018383808284378201915050505050509192919290803590602001908201803590602001908080601f0160208091040260200160405190810160405280939291908181526020018383808284378201915050505050509192919290803590602001908201803590602001908080601f0160208091040260200160405190810160405280939291908181526020018383808284378201915050505050509192919290803590602001908201803590602001908080601f0160208091040260200160405190810160405280939291908181526020018383808284378201915050505050509192919290803590602001908201803590602001908080601f0160208091040260200160405190810160405280939291908181526020018383808284378201915050505050509192919290803590602001908201803590602001908080601f0160208091040260200160405190810160405280939291908181526020018383808284378201915050505050509192919290803590602001908201803590602001908080601f0160208091040260200160405190810160405280939291908181526020018383808284378201915050505050509192919290505050611c70565b005b348015610d2a57600080fd5b50610d4960048036038101908080359060200190929190505050611d8f565b604051808060200180602001806020018060200180602001806020018060200188810388528f818151815260200191508051906020019080838360005b83811015610da1578082015181840152602081019050610d86565b50505050905090810190601f168015610dce5780820380516001836020036101000a031916815260200191505b5088810387528e818151815260200191508051906020019080838360005b83811015610e07578082015181840152602081019050610dec565b50505050905090810190601f168015610e345780820380516001836020036101000a031916815260200191505b5088810386528d818151815260200191508051906020019080838360005b83811015610e6d578082015181840152602081019050610e52565b50505050905090810190601f168015610e9a5780820380516001836020036101000a031916815260200191505b5088810385528c818151815260200191508051906020019080838360005b83811015610ed3578082015181840152602081019050610eb8565b50505050905090810190601f168015610f005780820380516001836020036101000a031916815260200191505b5088810384528b818151815260200191508051906020019080838360005b83811015610f39578082015181840152602081019050610f1e565b50505050905090810190601f168015610f665780820380516001836020036101000a031916815260200191505b5088810383528a818151815260200191508051906020019080838360005b83811015610f9f578082015181840152602081019050610f84565b50505050905090810190601f168015610fcc5780820380516001836020036101000a031916815260200191505b50888103825289818151815260200191508051906020019080838360005b83811015611005578082015181840152602081019050610fea565b50505050905090810190601f1680156110325780820380516001836020036101000a031916815260200191505b509e50505050505050505050505050505060405180910390f35b60e060405190810160405280888152602001878152602001868152602001858152602001848152602001838152602001828152506000808a815260200190815260200160002060008201518160000190805190602001906110ae929190612283565b5060208201518160010190805190602001906110cb929190612283565b5060408201518160020190805190602001906110e8929190612283565b506060820151816003019080519060200190611105929190612283565b506080820151816004019080519060200190611122929190612283565b5060a082015181600501908051906020019061113f929190612283565b5060c082015181600601908051906020019061115c929190612283565b509050505050505050505050565b606080606080606080606061117d612303565b6000808a815260200190815260200160002060e06040519081016040529081600082018054600181600116156101000203166002900480601f0160208091040260200160405190810160405280929190818152602001828054600181600116156101000203166002900480156112345780601f1061120957610100808354040283529160200191611234565b820191906000526020600020905b81548152906001019060200180831161121757829003601f168201915b50505050508152602001600182018054600181600116156101000203166002900480601f0160208091040260200160405190810160405280929190818152602001828054600181600116156101000203166002900480156112d65780601f106112ab576101008083540402835291602001916112d6565b820191906000526020600020905b8154815290600101906020018083116112b957829003601f168201915b50505050508152602001600282018054600181600116156101000203166002900480601f0160208091040260200160405190810160405280929190818152602001828054600181600116156101000203166002900480156113785780601f1061134d57610100808354040283529160200191611378565b820191906000526020600020905b81548152906001019060200180831161135b57829003601f168201915b50505050508152602001600382018054600181600116156101000203166002900480601f01602080910402602001604051908101604052809291908181526020018280546001816001161561010002031660029004801561141a5780601f106113ef5761010080835404028352916020019161141a565b820191906000526020600020905b8154815290600101906020018083116113fd57829003601f168201915b50505050508152602001600482018054600181600116156101000203166002900480601f0160208091040260200160405190810160405280929190818152602001828054600181600116156101000203166002900480156114bc5780601f10611491576101008083540402835291602001916114bc565b820191906000526020600020905b81548152906001019060200180831161149f57829003601f168201915b50505050508152602001600582018054600181600116156101000203166002900480601f01602080910402602001604051908101604052809291908181526020018280546001816001161561010002031660029004801561155e5780601f106115335761010080835404028352916020019161155e565b820191906000526020600020905b81548152906001019060200180831161154157829003601f168201915b50505050508152602001600682018054600181600116156101000203166002900480601f0160208091040260200160405190810160405280929190818152602001828054600181600116156101000203166002900480156116005780601f106115d557610100808354040283529160200191611600565b820191906000526020600020905b8154815290600101906020018083116115e357829003601f168201915b5050505050815250509050806000015181602001518260400151836060015184608001518560a001518660c00151869650859550849450839350829250819150809050975097509750975097509750975050919395979092949650565b6060806060806060806060611670612341565b600260008a815260200190815260200160002060e06040519081016040529081600082018054600181600116156101000203166002900480601f0160208091040260200160405190810160405280929190818152602001828054600181600116156101000203166002900480156117285780601f106116fd57610100808354040283529160200191611728565b820191906000526020600020905b81548152906001019060200180831161170b57829003601f168201915b50505050508152602001600182018054600181600116156101000203166002900480601f0160208091040260200160405190810160405280929190818152602001828054600181600116156101000203166002900480156117ca5780601f1061179f576101008083540402835291602001916117ca565b820191906000526020600020905b8154815290600101906020018083116117ad57829003601f168201915b50505050508152602001600282018054600181600116156101000203166002900480601f01602080910402602001604051908101604052809291908181526020018280546001816001161561010002031660029004801561186c5780601f106118415761010080835404028352916020019161186c565b820191906000526020600020905b81548152906001019060200180831161184f57829003601f168201915b50505050508152602001600382018054600181600116156101000203166002900480601f01602080910402602001604051908101604052809291908181526020018280546001816001161561010002031660029004801561190e5780601f106118e35761010080835404028352916020019161190e565b820191906000526020600020905b8154815290600101906020018083116118f157829003601f168201915b50505050508152602001600482018054600181600116156101000203166002900480601f0160208091040260200160405190810160405280929190818152602001828054600181600116156101000203166002900480156119b05780601f10611985576101008083540402835291602001916119b0565b820191906000526020600020905b81548152906001019060200180831161199357829003601f168201915b50505050508152602001600582018054600181600116156101000203166002900480601f016020809104026020016040519081016040528092919081815260200182805460018160011615610100020316600290048015611a525780601f10611a2757610100808354040283529160200191611a52565b820191906000526020600020905b815481529060010190602001808311611a3557829003601f168201915b50505050508152602001600682018054600181600116156101000203166002900480601f016020809104026020016040519081016040528092919081815260200182805460018160011615610100020316600290048015611af45780601f10611ac957610100808354040283529160200191611af4565b820191906000526020600020905b815481529060010190602001808311611ad757829003601f168201915b5050505050815250509050806000015181602001518260400151836060015184608001518560a001518660c00151869650859550849450839350829250819150809050975097509750975097509750975050919395979092949650565b60e06040519081016040528088815260200187815260200186815260200185815260200184815260200183815260200182815250600160008a81526020019081526020016000206000820151816000019080519060200190611bb4929190612283565b506020820151816001019080519060200190611bd1929190612283565b506040820151816002019080519060200190611bee929190612283565b506060820151816003019080519060200190611c0b929190612283565b506080820151816004019080519060200190611c28929190612283565b5060a0820151816005019080519060200190611c45929190612283565b5060c0820151816006019080519060200190611c62929190612283565b509050505050505050505050565b60e06040519081016040528088815260200187815260200186815260200185815260200184815260200183815260200182815250600260008a81526020019081526020016000206000820151816000019080519060200190611cd3929190612283565b506020820151816001019080519060200190611cf0929190612283565b506040820151816002019080519060200190611d0d929190612283565b506060820151816003019080519060200190611d2a929190612283565b506080820151816004019080519060200190611d47929190612283565b5060a0820151816005019080519060200190611d64929190612283565b5060c0820151816006019080519060200190611d81929190612283565b509050505050505050505050565b6060806060806060806060611da261237f565b600160008a815260200190815260200160002060e06040519081016040529081600082018054600181600116156101000203166002900480601f016020809104026020016040519081016040528092919081815260200182805460018160011615610100020316600290048015611e5a5780601f10611e2f57610100808354040283529160200191611e5a565b820191906000526020600020905b815481529060010190602001808311611e3d57829003601f168201915b50505050508152602001600182018054600181600116156101000203166002900480601f016020809104026020016040519081016040528092919081815260200182805460018160011615610100020316600290048015611efc5780601f10611ed157610100808354040283529160200191611efc565b820191906000526020600020905b815481529060010190602001808311611edf57829003601f168201915b50505050508152602001600282018054600181600116156101000203166002900480601f016020809104026020016040519081016040528092919081815260200182805460018160011615610100020316600290048015611f9e5780601f10611f7357610100808354040283529160200191611f9e565b820191906000526020600020905b815481529060010190602001808311611f8157829003601f168201915b50505050508152602001600382018054600181600116156101000203166002900480601f0160208091040260200160405190810160405280929190818152602001828054600181600116156101000203166002900480156120405780601f1061201557610100808354040283529160200191612040565b820191906000526020600020905b81548152906001019060200180831161202357829003601f168201915b50505050508152602001600482018054600181600116156101000203166002900480601f0160208091040260200160405190810160405280929190818152602001828054600181600116156101000203166002900480156120e25780601f106120b7576101008083540402835291602001916120e2565b820191906000526020600020905b8154815290600101906020018083116120c557829003601f168201915b50505050508152602001600582018054600181600116156101000203166002900480601f0160208091040260200160405190810160405280929190818152602001828054600181600116156101000203166002900480156121845780601f1061215957610100808354040283529160200191612184565b820191906000526020600020905b81548152906001019060200180831161216757829003601f168201915b50505050508152602001600682018054600181600116156101000203166002900480601f0160208091040260200160405190810160405280929190818152602001828054600181600116156101000203166002900480156122265780601f106121fb57610100808354040283529160200191612226565b820191906000526020600020905b81548152906001019060200180831161220957829003601f168201915b50505050508152505090508060c00151816000015182602001518360400151846060015185608001518660a00151869650859550849450839350829250819150809050975097509750975097509750975050919395979092949650565b828054600181600116156101000203166002900490600052602060002090601f016020900481019282601f106122c457805160ff19168380011785556122f2565b828001600101855582156122f2579182015b828111156122f15782518255916020019190600101906122d6565b5b5090506122ff91906123bd565b5090565b60e060405190810160405280606081526020016060815260200160608152602001606081526020016060815260200160608152602001606081525090565b60e060405190810160405280606081526020016060815260200160608152602001606081526020016060815260200160608152602001606081525090565b60e060405190810160405280606081526020016060815260200160608152602001606081526020016060815260200160608152602001606081525090565b6123df91905b808211156123db5760008160009055506001016123c3565b5090565b905600a165627a7a72305820fc3b0773ba1fc8403d5a49b7c534a894a18270ec928fd0edce51308d9a07d96e0029",
  "source": "pragma solidity  ^0.4.24;\r\n\r\ncontract CeoAndEmpl {\r\n    struct ConsId {\r\n        string c_id;\r\n        string p_id;\r\n        string work_place_name;\r\n        string b_name;\r\n        string p_name;\r\n        string p_phone;\r\n        string p_address;\r\n    }\r\n    \r\n    struct ConsTime {\r\n        string start_period;\r\n        string end_period;\r\n        string c_date;\r\n        string start_work_time;\r\n        string end_work_time;\r\n        string payday;\r\n        string hour_wage;\r\n    }\r\n\r\n    struct ConsCont{\r\n        string dedicated_work;\r\n        string work_place;\r\n        string work_detail;\r\n        string additional_wage;\r\n        string b_number;\r\n        string c_address;\r\n        string work_place_phone;\r\n       \r\n    }\r\n    mapping(uint => ConsId) consIdent;\r\n    mapping(uint => ConsTime) consTimeIdent;\r\n    mapping(uint => ConsCont) consContIdent;\r\n\r\n    function addConsId(uint c_code, string _c_id,\r\n        string _p_id,\r\n        string _work_place_name,\r\n        string _b_name,\r\n        string _p_name,\r\n        string _p_phone,\r\n        string _p_address) public {\r\n                \t         \r\n        consIdent[c_code] = ConsId (_c_id,_p_id,_work_place_name, _b_name,_p_name,_p_phone,_p_address);\r\n    }\r\n\r\n    function getConsId(uint c_code) view returns (string,string,string,string,string,string,string) {\r\n        ConsId memory ci = consIdent[c_code];\r\n        return (\r\n                ci.c_id,\r\n                ci.p_id,\r\n                ci.work_place_name,\r\n                ci.b_name,\r\n                ci.p_name,\r\n                ci.p_phone,\r\n                ci.p_address\r\n                );\r\n    }\r\n    \r\n    function addConsTime(uint c_code, string _start_period,string _end_period,\r\n                     string _c_date,string _start_work_time,string _end_work_time,string _payday, string _hour_wage) public {\r\n                \t         \r\n        consTimeIdent[c_code] = ConsTime(_start_period,_end_period,_c_date,_start_work_time,_end_work_time,_payday, _hour_wage);\r\n    }\r\n\r\n    function getConsTime(uint c_code) view returns (string,string,string,string,string,string,string) {\r\n        ConsTime memory ct = consTimeIdent[c_code];\r\n        return (\r\n                ct.hour_wage,\r\n                ct.start_period,\r\n                ct.end_period,\r\n                ct.c_date,\r\n                ct.start_work_time,\r\n                ct.end_work_time,\r\n                ct.payday\r\n                );\r\n    }\r\n    \r\n    \r\n    function addConsCont(uint c_code,\r\n        string _dedicated_work,\r\n        string _work_place,\r\n        string _work_detail,\r\n        string _additional_wage,\r\n        string _b_number,\r\n        string _c_address,\r\n        string _work_place_phone) public {\r\n                \t         \r\n        consContIdent[c_code] = ConsCont(_dedicated_work,_work_place,_work_detail\r\n                                    ,_additional_wage,_b_number,_c_address,_work_place_phone);\r\n    }\r\n\r\n    function getConsCont(uint c_code) view returns (string,string,string,string,string,string,string) {\r\n        ConsCont memory cc = consContIdent[c_code];\r\n        return (\r\n                cc.dedicated_work,\r\n                cc.work_place,\r\n                cc.work_detail,\r\n                cc.additional_wage,\r\n                cc.b_number,\r\n                cc.c_address,\r\n                cc.work_place_phone\r\n                );\r\n    }\r\n\r\n}",
  "sourcePath": "J:\\klaytn\\problock\\contracts\\CeoAndEmpl.sol",
  "compiler": {
    "name": "solc",
    "version": "0.4.25+commit.59dbf8f1.Emscripten.clang"
  },
  "schemaVersion": "2.0.2",
  "updatedAt": "2019-06-13T02:12:47.244Z"
}