{
  "contractName": "ContHash",
  "abi": [
    {
      "constant": false,
      "inputs": [
        {
          "name": "c_code",
          "type": "uint256"
        },
        {
          "name": "hashContinfo",
          "type": "string"
        }
      ],
      "name": "addConhash",
      "outputs": [],
      "payable": false,
      "stateMutability": "nonpayable",
      "type": "function"
    },
    {
      "constant": true,
      "inputs": [
        {
          "name": "c_code",
          "type": "uint256"
        }
      ],
      "name": "getContHash",
      "outputs": [
        {
          "name": "",
          "type": "string"
        }
      ],
      "payable": false,
      "stateMutability": "view",
      "type": "function"
    }
  ],
  "bytecode": "0x608060405234801561001057600080fd5b5061031a806100206000396000f30060806040526004361061004c576000357c0100000000000000000000000000000000000000000000000000000000900463ffffffff16806364dc831b146100515780636f152555146100c4575b600080fd5b34801561005d57600080fd5b506100c260048036038101908080359060200190929190803590602001908201803590602001908080601f016020809104026020016040519081016040528093929190818152602001838380828437820191505050505050919291929050505061016a565b005b3480156100d057600080fd5b506100ef60048036038101908080359060200190929190505050610195565b6040518080602001828103825283818151815260200191508051906020019080838360005b8381101561012f578082015181840152602081019050610114565b50505050905090810190601f16801561015c5780820380516001836020036101000a031916815260200191505b509250505060405180910390f35b806000808481526020019081526020016000209080519060200190610190929190610249565b505050565b60606000808381526020019081526020016000208054600181600116156101000203166002900480601f01602080910402602001604051908101604052809291908181526020018280546001816001161561010002031660029004801561023d5780601f106102125761010080835404028352916020019161023d565b820191906000526020600020905b81548152906001019060200180831161022057829003601f168201915b50505050509050919050565b828054600181600116156101000203166002900490600052602060002090601f016020900481019282601f1061028a57805160ff19168380011785556102b8565b828001600101855582156102b8579182015b828111156102b757825182559160200191906001019061029c565b5b5090506102c591906102c9565b5090565b6102eb91905b808211156102e75760008160009055506001016102cf565b5090565b905600a165627a7a72305820a666eb1d02a83bae0af20ec63fce3e3d701881924ba203cb0cfcd1cb08ec1ddc0029",
  "source": "pragma solidity  ^0.4.24;\r\n\r\ncontract ContHash {\r\n\r\n    mapping(uint => string) cont;\r\n\r\n\r\n    function addConhash(uint c_code, string hashContinfo) public {\r\n        cont[c_code] = hashContinfo;\r\n    }\r\n\r\n    function getContHash(uint c_code) public view returns (string) {\r\n        return cont[c_code];\r\n    }\r\n}",
  "sourcePath": "J:\\klaytn\\problock_v2\\contracts\\ContHash.sol",
  "compiler": {
    "name": "solc",
    "version": "0.4.25+commit.59dbf8f1.Emscripten.clang"
  },
  "schemaVersion": "2.0.2",
  "updatedAt": "2019-06-21T06:20:23.253Z"
}